:100000000C945D000C9485000C9485000C94850084
:100010000C9485000C9485000C9485000C9485004C
:100020000C9485000C9485000C9485000C9485003C
:100030000C9485000C9485000C9485000C9485002C
:100040000C9411020C9485000C9481020C945B02B8
:100050000C9485000C9485000C9485000C9485000C
:100060000C9485000C9485000000000024002700FB
:100070002A0000000000250028002B0004040404CE
:100080000404040402020202020203030303030342
:10009000010204081020408001020408102001021F
:1000A00004081020000000080002010000030407FB
:1000B0000000000000000000B30211241FBECFEFBB
:1000C000D8E0DEBFCDBF11E0A0E0B1E0E4EEF7E0A4
:1000D00002C005900D92A231B107D9F721E0A2E14B
:1000E000B1E001C01D92A53CB207E1F710E0CDE5FB
:1000F000D0E004C02197FE010E94EA03CC35D1076D
:10010000C9F70E940A030C94F0030C940000AF920C
:10011000BF92CF92DF92EF92FF920F931F93CF93F4
:10012000DF936C017B018B01040F151FEB015E0156
:10013000AE18BF08C017D10759F06991D601ED91EB
:10014000FC910190F081E02DC6010995892B79F78A
:10015000C501DF91CF911F910F91FF90EF90DF903C
:10016000CF90BF90AF900895FC01538D448D252F03
:1001700030E0842F90E0821B930B541710F0CF9641
:10018000089501970895FC01918D828D981761F073
:10019000A28DAE0FBF2FB11D5D968C91928D9F5F8A
:1001A0009F73928F90E008958FEF9FEF0895FC0169
:1001B000918D828D981731F0828DE80FF11D858D1C
:1001C00090E008958FEF9FEF0895FC01918D228DAF
:1001D000892F90E0805C9F4F821B91098F73992734
:1001E00008958BE191E00E94E50021E0892B09F45C
:1001F00020E0822F089580E090E0892B29F00E9472
:10020000F10081110C9400000895FC01A48DA80F49
:10021000B92FB11DA35ABF4F2C91848D90E0019648
:100220008F739927848FA689B7892C93A089B18968
:100230008C91837080648C93938D848D981306C009
:100240000288F389E02D80818F7D80830895EF926D
:10025000FF920F931F93CF93DF93EC0181E0888F80
:100260009B8D8C8D98131AC0E889F989808185FF50
:1002700015C09FB7F894EE89FF896083E889F989F2
:1002800080818370806480839FBF81E090E0DF91F4
:10029000CF911F910F91FF90EF900895F62E0B8D47
:1002A00010E00F5F1F4F0F731127E02E8C8D8E1102
:1002B0000CC00FB607FCFACFE889F989808185FF69
:1002C000F5CFCE010E940501F1CFEB8DEC0FFD2F94
:1002D000F11DE35AFF4FF0829FB7F8940B8FEA8924
:1002E000FB8980818062CFCFCF93DF93EC01888D33
:1002F0008823B9F0AA89BB89E889F9898C9185FDA1
:1003000003C0808186FD0DC00FB607FCF7CF8C912E
:1003100085FFF2CF808185FFEDCFCE010E940501E0
:10032000E9CFDF91CF91089590E0FC01EC55FF4FAC
:100330002491FC01E057FF4F3491FC01E458FF4F3A
:10034000E491EE23C9F0222339F0233001F1A8F41F
:10035000213019F1223029F1F0E0EE0FFF1FEE58A5
:10036000FF4FA591B4918FB7F894EC91611126C01D
:1003700030953E233C938FBF08952730A9F0283055
:10038000C9F0243049F7809180008F7D03C08091AF
:1003900080008F7780938000DFCF84B58F7784BD16
:1003A000DBCF84B58F7DFBCF8091B0008F778093BA
:1003B000B000D2CF8091B0008F7DF9CF3E2BDACF45
:1003C000CF93DF9390E0FC01E057FF4F24918458D6
:1003D0009F4FFC0184918823D1F090E0880F991FF2
:1003E000FC01E859FF4FA591B491FC01EE58FF4F75
:1003F000C591D49161110EC09FB7F8948C91E22FF2
:10040000E0958E238C932881E223E8839FBFDF91C0
:10041000CF9108958FB7F894EC91E22BEC938FBFB6
:10042000F6CF1F920F920FB60F9211242F933F9386
:100430008F939F93AF93BF93809117019091180171
:10044000A0911901B0911A013091160123E0230FF8
:100450002D3758F50196A11DB11D209316018093EB
:10046000170190931801A0931901B0931A0180917C
:10047000120190911301A0911401B0911501019600
:10048000A11DB11D8093120190931301A09314013B
:10049000B0931501BF91AF919F918F913F912F9193
:1004A0000F900FBE0F901F90189526E8230F02960D
:1004B000A11DB11DD2CF1F920F920FB60F92112422
:1004C0002F933F934F935F936F937F938F939F935C
:1004D000AF93BF93EF93FF938BE191E00E940501EF
:1004E000FF91EF91BF91AF919F918F917F916F910C
:1004F0005F914F913F912F910F900FBE0F901F90E2
:1005000018951F920F920FB60F9211242F938F936D
:100510009F93EF93FF93E0912B01F0912C01808149
:10052000E0913101F091320182FD1BC090818091F8
:1005300034018F5F8F7320913501821741F0E09174
:100540003401F0E0E55EFE4F958F80933401FF911A
:10055000EF919F918F912F910F900FBE0F901F9051
:1005600018958081F4CFEBE1F1E01382128288EEDE
:1005700093E0A0E0B0E084839583A683B78384E012
:1005800091E09183808385EC90E09587848784EC6B
:1005900090E09787868780EC90E0918B808B81EC50
:1005A00090E0938B828B82EC90E0958B848B86EC31
:1005B00090E0978B868B118E128E138E148EEEEB3D
:1005C000F1E082E090E09183808383E090E0938388
:1005D000828360E082E00E94E00160E083E00E94AC
:1005E000E001E8EBF1E089E090E09183808385E031
:1005F00090E0938382838BE090E09583848361E035
:100600000E94E00161E089E00E94E00161E085E094
:100610000C94E001789484B5826084BD84B58160D7
:1006200084BD85B5826085BD85B5816085BD8091BD
:100630006E00816080936E00109281008091810035
:10064000826080938100809181008160809381002D
:10065000809180008160809380008091B1008460EF
:100660008093B1008091B00081608093B000809150
:100670007A00846080937A0080917A00826080930F
:100680007A0080917A00816080937A0080917A006C
:10069000806880937A001092C100E0912B01F09164
:1006A0002C0182E08083E0912701F09128011082E3
:1006B000E0912901F0912A018FEC8083109233019F
:1006C000E0912F01F091300186E08083E0912D01CF
:1006D000F0912E01808180618083E0912D01F09165
:1006E0002E01808188608083E0912D01F0912E01A0
:1006F000808180688083E0912D01F0912E018081BE
:100700008F7D808305EE10E0C5EE80E0E82E80E06E
:10071000F82EC090BC01D090BD0161E08C2D0E94EC
:10072000E001F601FF27EC55FF4FE491E330C1F102
:1007300048F4E130B9F0E23071F161E08C2D0E94B3
:10074000940114C0E730B1F1E830E1F1E430A9F7E9
:100750008091800080628093800010938B000093D2
:100760008A0004C084B5806884BDC7BD61E0809103
:10077000B8010E94940160E08091BA010E94940146
:10078000E114F10431F20E94F100882309F4C1CF91
:100790000E940000BECF84B5806284BDC8BDE6CF94
:1007A000809180008068809380001093890000937E
:1007B0008800DCCF8091B00080688093B000C09347
:1007C000B300D4CF8091B00080628093B000C0931A
:1007D000B400CCCFEE0FFF1F0590F491E02D0994EB
:0407E000F894FFCFBB
:1007E4000000000027018700B4007401E500C30085
:0207F400D7002C
:00000001FF
